S0130000736D6172746C6F636B65722E737265636A
S11300000C942A000C9441050C9455050C9447005B
S11300100C9447000C9447000C9447000C94470040
S11300200C9447000C940E050C9447000C94470064
S11300300C9447000C94E3060C9447000C9447007E
S11300400C9447000C9447000C9447000C94470010
S11300500C94470011241FBECFE5D8E0DEBFCDBF0E
S113006012E0A0E6B0E0E4ECF5E102C005900D92E8
S1130070AC35B107D9F722E0ACE5B2E001C01D927E
S1130080AC38B207E1F70E94CE020C94E00A0C945B
S11300900000A19AA99808950F931F93CF938823E2
S11300A069F08B01C82FA99AC8010E946200A9981F
S11300B084E690E00E946200C150A9F7CF911F919D
S11300C00F910895009741F0EFECF7E03197F1F7C5
S11300D000C000000197C1F70895009731F022E0B5
S11300E02A95F1F700C00197D1F708958FE890E0C1
S11300F00E94730784E690E00E94620081E890E029
S11301000E9473070895EF92FF920F931F93CF936A
S1130110DF937C018B0185E790E00E9473070E94C6
S11301206F078B32E1F70E946F078C32E1F70E9470
S11301306F078C32E1F70E946F078C32E1F7E70119
S113014089E0E80EF11C0E946F078993EC16FD0606
S1130150D1F70E946F078C32E1F7E801065F1F4F69
S11301600E946F078993C017D107D1F7DF91CF9110
S11301701F910F91FF90EF90089584E091E00E9409
S113018073070E946F078B34E1F781E008950F93A2
S11301901F93CF93DF93EC018B0181E00E94DF0179
S11301A08DE990E00E9469018EEE90E00E94730751
S11301B0CE010E9473078AEA90E00E9473070E94AE
S11301C06F078E33E1F78CEA90E00E947307C80151
S11301D00E9473078DEA90E00E9473078AE10E94EF
S11301E06B070E946F078B3451F08534D1F70E945E
S11301F0BD00811104C086EC90E00E9469018FEC7F
S113020090E00E9469010E94BD0088EE93E00E9484
S1130210620081E00E94DF01DF91CF911F910F9175
S11302200895CF9381E00E94DF0182ED90E00E9467
S113023069010E94BD00C82F8823D1F089EF90E0A6
S11302400E9473070E946F078B34E1F78BED90E0F7
S11302500E9473070E946F078B34E1F78FEC90E0E4
S11302600E94690188EE93E00E946200C1E004C02C
S113027086EC90E00E9469018C2FCF910895AB9891
S113028081E090E00E946D00AB9A0895CF93C82F4F
S113029085B38F709C2F907F892B85BB0E943F0173
S11302A085B3282F2F7030E1C39FC0011124822B06
S11302B085BB0E943F018EEE92E00E946D00CF91BB
S11302C00895AA980E9446010895AA9A0E94460198
S11302D008950F931F93CF93DF93FC012081222372
S11302E0E9F0EC0100EC10E880916102803919F02A
S11302F0803D21F005C00093610202C010936102A9
S11303008091610291E0980F909361020E946101D3
S113031089910E94650188818111E6CFDF91CF9197
S11303201F910F91089581E00E94610180E88093FC
S11303306102089580E80E94610180E8809361026F
S1130340089580EC0E94610180EC8093610208951D
S113035088E091E00E9469010E94A101089584B39C
S11303608C6F84BB85B3837085BB88E290E00E9468
S1130370620083E30E94610185E090E00E946200D4
S113038083E30E94610184EF91E00E946D0082E3A7
S11303900E94610184EF91E00E946D0088E20E9456
S11303A061018CE00E94610186E00E94610181E0AC
S11303B00E9461010E9493010E94A8010895CF93B5
S11303C0DF93D82F882319F0813021F005C00E94D3
S11303D09A0102C00E94A101C0E180E20E9465016D
S11303E0C150D9F7DD2319F0D13021F005C00E94A6
S11303F09A0102C00E94A101DF91CF9108954F920A
S11304005F927F928F929F92AF92BF92CF92DF9230
S1130410EF92FF920F931F93CF93DF93EC012E0182
S1130420F9908F2D90E00E94390A892BC1F78DE253
S1130430F8128AC00FEF1FEF02C001E010E0EFEFE7
S11304404E1A5E0AF201D0808D2D90E0C0970A9773
S113045008F081C0E2012196812C912C540120E006
S113046030E040E251E4C501B4010E9426094B0189
S11304705C016D2D70E060537109072E000C880B30
S1130480990B0E947108A50194010E948C074B01ED
S11304905C012E01D9908D2D90E0C0970A97F8F257
S11304A05DC0F2017180872D90E0C0970A97A8F58E
S11304B0E20122960F2EC12CD12CF0E8EF2EFFE39F
S11304C0FF2EF02D20E030E040E251E4C501B401FC
S11304D00E9426094B015C01672D70E0605371098D
S11304E0072E000C880B990B0E947108A50194013A
S11304F00E948C074B015C0120E030E040E251E4B3
S1130500C701B6010E9426096B017C017990872DF1
S113051090E0C0970A97B0F208C00F2EC12CD12CDE
S1130520F0E8EF2EFFE3FF2EF02DB801110F880B3A
S1130530990B0E947108A50194010E942609A70144
S113054096010E94FD0717C0FBE2FF1609F475CF60
S113055001E010E077CF812C912C54018EE2D81663
S113056009F49FCF0F2EC12CD12CF0E8EF2EFFE31E
S1130570FF2EF02DDACFDF91CF911F910F91FF90D5
S1130580EF90DF90CF90BF90AF909F908F907F902F
S11305905F904F900895A09AA8980895CF93DF9301
S11305A0CDB7DEB7E6970FB6F894DEBF0FBECDBF6A
S11305B00E9449000E94CB0281B38F7381BB82B336
S11305C0806C82BB64E670E082E00E944C000E9472
S11305D0AF010E94EE050E9461078A98929A8B9857
S11305E0939A8BB7806C8BBF85B78A6085BF0E9456
S11305F076000E9411010E94FF0581EE8DBD8BE7FC
S11306008CBD89B7846089BF1FBC8EB584608EBDE4
S1130610809167028B7F80936702809167028D7F50
S113062080936702809167028E7F80936702809136
S11306306702877F809367020E94930183E291E0BF
S11306400E946901789485B7806885BF88956E019A
S113065081E2C80ED11C10E37E019BE0E90EF11C7F
S11306600F2EF4E6AF2EF0E0BF2EF02DBEAAADAAF9
S11306708091670283FF46C18091670282FD42C177
S1130680FE017796DE01929611931D93EC15FD05FC
S1130690D9F719A21CA680916702877F809367020D
S11306A081E00E94DF0164E670E081E00E944C007A
S11306B084E391E00E946901BE01695E7F4FCE012F
S11306C082960E948300FE013196DE011C961193EE
S11306D01D93EE16FF06D9F71B861E8A4BE050E0E9
S11306E06BE070E0CE010C960E94590A4BE050E09A
S11306F060E070E0CE0101960E94590ACE010C968A
S11307000E94FF016DA77EA78FA798ABCE0101962B
S11307100E94FF014B015C01CE0182960E94FF0101
S113072069AB7AAB8BAB9CABCE0147960E94FF01C1
S11307302B013C012FE832EC45EF5CE36DA57EA56F
S11307408FA598A90E948B079B01AC0169A97AA97E
S11307508BA99CA90E94210988230CF433C12FE89A
S113076032EC45EF5CE36DA57EA58FA598A90E94A8
S11307708C079B01AC0169A97AA98BA99CA90E9449
S1130780F80718160CF41EC12FE832EC45EF5CE3B1
S1130790C501B4010E948B079B01AC01C301B201E6
S11307A00E94210988230CF40DC12FE832EC45EF97
S11307B05CE3C501B4010E948C079B01AC01C30139
S11307C0B2010E94F80718160CF4FCC0FFC00E9486
S11307D0930184E491E00E94690164E670E081E0A1
S11307E00E944C000E94A10186EC0E946101FE015E
S11307F031967F010E947605F70181937F018AE299
S11308000E9465016BE470E081E00E944C00EC14EE
S1130810FD0481F71D82BE016F5F7F4F82E692E087
S11308200E944D0A21E0892B09F020E0213009F0D3
S11308304CC064E670E081E00E944C0084E591E0E5
S11308400E94690188EE93E00E9462000E94930175
S113085081E691E00E94690164E670E081E00E9413
S11308604C000E94F5058699FECF0E94FB050E946C
S1130870930181E791E00E9469016AEF70E081E0F1
S11308800E944C0088E893E10E9462000E94930158
S113089080E891E00E94690164E670E081E00E94D2
S11308A04C000E94F8058799FECF0E94FB0564E680
S11308B070E081E00E944C000E94930180E991E085
S11308C00E946901A898F894FFCFA99A0E94930105
S11308D08DE991E00E9469016AEF70E081E00E9475
S11308E04C0084EF91E00E946200A998115009F035
S11308F06ECF0E9493018CEA91E00E946901A89A4C
S1130900F894FFCF8091670280FF83C081E00E944A
S1130910DF018CEB91E00E946901EDA9FEA96281DF
S113092073818DEC91E00E94800681E00E94DF01DA
S1130930A998809167028E7F8093670280916702F5
S113094081FF3EC0FE013196DE011C9611931D937A
S1130950EE15FF05D9F71B861E8A81E00E94DF0190
S113096088ED91E00E94690164E670E081E00E94F4
S11309704C00BE016F5F7F4FCE010C960E94830036
S1130980CE010C960E94FF01CE0101960E94FF0148
S11309904BE050E06BE070E0CE010C960E94710ACF
S11309A04BE050E060E070E0CE0101960E94710AD5
S11309B0809167028D7F8093670281E00E94DF014E
S11309C0889556CE81E00E94DF019CCF81E00E9491
S11309D0DF0188EE91E00E94690164E670E081E045
S11309E00E944C0088EE93E00E94620060916400D3
S11309F0709165008DEC91E00E944B068091670236
S1130A0084608093670213E06E01F5E0CF0ED11C81
S1130A10DECE8091670281FFD3CF94CF1F920F92D5
S1130A200FB60F9211248F9381EE8DBD8BE78CBD91
S1130A3080915D028F5F80935D02843138F08091F4
S1130A40670288608093670210925D0280915C0265
S1130A508F5F80935C02843118F010925C0208C0AE
S1130A60813041F028F0823019F0833021F402C043
S1130A70A89A01C0A8988F910F900FBE0F901F9055
S1130A8018951F920F920FB60F9211248F93809195
S1130A9067028260809367028BB780648BBF8F91FB
S1130AA00F900FBE0F901F9018951F920F920FB6C4
S1130AB00F9211248F938091670281608093670263
S1130AC0A99A8BB780688BBF8F910F900FBE0F9040
S1130AD01F90189596B39E709A3011F48F5F089505
S1130AE096B39E70963009F48E5F0895CF93DF938A
S1130AF0CDB7DEB72C970FB6F894DEBF0FBECDBFCF
S1130B008CE0E9E6F0E0DE01119601900D928A9501
S1130B10E1F78FE087BB88BB86B38F708F30E1F736
S1130B2081E090E00E94620086B38F708F30E1F71D
S1130B3086B38F708F30E1F381E090E00E94620011
S1130B4088B38F70806E88BB81E090E00E94620061
S1130B5086B38F708F3021F080E00E946A0531C027
S1130B6088B38F70806D88BB81E090E00E94620042
S1130B7086B38F708F3021F083E00E946A0521C014
S1130B8088B38F70806B88BB81E090E00E94620024
S1130B9086B38F708F3021F086E00E946A0511C001
S1130BA088B38F70806788BB81E090E00E94620008
S1130BB086B38F708F3021F089E00E946A0501C0EE
S1130BC080E0FE01E80FF11D81812C960FB6F894A8
S1130BD0DEBF0FBECDBFDF91CF9108958AB3886188
S1130BE08ABB8BB3877E8BBB0895DB9ADC98089510
S1130BF0DC9ADB9808958BB3877E8BBB089587E1DD
S1130C0090E00E94690A803669F486E190E00E94CF
S1130C10690A8093680261E0680F86E190E00E94AF
S1130C20920A0DC060E687E190E00E94920A88E390
S1130C308093680268E386E190E00E94920A8091C2
S1130C40680290E00E942E0A0895EF92FF920F939B
S1130C501F93CF93DF938C01FC01148284EF91E006
S1130C600E946200E8010C5F1F4F0F2EFAE0EF2E86
S1130C70F12CF02D0E94290AB7010E949309805D8E
S1130C808993C017D107B1F7DF91CF911F910F91CD
S1130C90FF90EF900895EF92FF920F931F93CF93DD
S1130CA0DF93CDB7DEB7C659D1090FB6F894DEBFCE
S1130CB00FBECDBF8C017B01198282E692E00E94B7
S1130CC02506B701CE0101960E94420A62E672E04F
S1130CD0CE0101960E94420ABE016F5F7F4FC80198
S1130CE00E94C700CA56DF4F0FB6F894DEBF0FBE8E
S1130CF0CDBFDF91CF911F910F91FF90EF90089599
S1130D00EF92FF920F931F93CF93DF93CDB7DEB78C
S1130D10CC5AD1090FB6F894DEBF0FBECDBF8C01FB
S1130D201F8AFE013C96DE0111969E012A5E3F4F0A
S1130D3080E381938D93E217F307D9F71E8A1B860C
S1130D401C8619827E0187E1E80EF11CC7010E940E
S1130D50420AD7010D900020E9F7119780E2EBE3F6
S1130D60F2E001900D928A95E1F7BE01645F7F4F36
S1130D70CE0101960E948300BE016F5F7F4FC701C1
S1130D800E94420AF70101900020E9F731978CE2B2
S1130D9090E091838083BE01645F7F4FC7010E940E
S1130DA0420AB701C8010E94C700C455DF4F0FB6FD
S1130DB0F894DEBF0FBECDBFDF91CF911F910F918D
S1130DC0FF90EF9008951F920F920FB60F92112487
S1130DD02F933F934F935F936F937F938F939F933F
S1130DE0AF93BF93EF93FF9380916800823089F0B3
S1130DF018F4813031F054C08330E9F0843011F1BB
S1130E004FC08CB1823209F04BC082E080936800FD
S1130E1047C080916002E1E0E80FE09360028D300A
S1130E2030F48CB1F0E0E458FD4F808339C083E0A6
S1130E308093680035C08CB18A3091F584E080934A
S1130E4068002EC0E0915F0281E08E0F80935F0204
S1130E509CB1F0E0E759FD4F90839A3009F5E82FF3
S1130E60F0E0E959FD4F1082EDE7F2E027E832E0C7
S1130E7083818193E217F307D9F78AE080935E02B6
S1130E801092870281E08093680010925F021092B2
S1130E906002809167028061809367020E948607E6
S1130EA0FF91EF91BF91AF919F918F917F916F913E
S1130EB05F914F913F912F910F900FBE0F901F9014
S1130EC018958AB188618AB980B5866880BD83E344
S1130ED089B910BC08955D9BFECF8CB908955F9BC2
S1130EE0FECF8CB10895CF93DF93EC0188818823E2
S1130EF051F021960E946B0781E090E00E9462000D
S1130F0089918111F7CFDF91CF9108958CB18CB184
S1130F108CB1579808955058BB27AA270E94A3075D
S1130F200C94E7080E94D90838F00E94E00820F0E9
S1130F3039F49F3F19F426F40C94D6080EF4E09586
S1130F40E7FB0C94D008E92F0E94F80858F3BA176D
S1130F50620773078407950720F079F4A6F50C94CB
S1130F601A090EF4E0950B2EBA2FA02D0B01B9012E
S1130F7090010C01CA01A0011124FF27591B99F00B
S1130F80593F50F4503E68F11A16F040A22F232F17
S1130F90342F4427585FF3CF469537952795A79567
S1130FA0F0405395C9F77EF41F16BA0B620B730B0E
S1130FB0840BBAF09150A1F0FF0FBB1F661F771F7F
S1130FC0881FC2F70EC0BA0F621F731F841F48F434
S1130FD0879577956795B795F7959E3F08F0B0CFBD
S1130FE09395880F08F09927EE0F979587950895A4
S1130FF00E94AC0808F481E008950E9411080C9442
S1131000E7080E94E00858F00E94D90840F029F44B
S11310105F3F29F00C94D00851110C941B090C94D7
S1131020D6080E94F80868F39923B1F3552391F385
S1131030951B550BBB27AA2762177307840738F043
S11310409F5F5F4F220F331F441FAA1FA9F335D0A0
S11310500E2E3AF0E0E832D091505040E695001C54
S1131060CAF72BD0FE2F29D0660F771F881FBB1F0E
S1131070261737074807AB07B0E809F0BB0B802DEC
S1131080BF01FF2793585F4F3AF09E3F510578F018
S11310900C94D0080C941B095F3FE4F3983ED4F3FE
S11310A0869577956795B795F7959F5FC9F7880FEC
S11310B0911D9695879597F90895E1E0660F771F3E
S11310C0881FBB1F621773078407BA0720F0621BCF
S11310D0730B840BBA0BEE1F88F7E0950895E89420
S11310E009C097FB3EF490958095709561957F4F6C
S11310F08F4F9F4F9923A9F0F92F96E9BB2793951A
S1131100F695879577956795B795F111F8CFFAF429
S1131110BB0F11F460FF1BC06F5F7F4F8F4F9F4F5A
S113112016C0882311F096E911C0772321F09EE8B8
S1131130872F762F05C0662371F096E8862F70E01E
S113114060E02AF09A95660F771F881FDAF7880FF8
S11311509695879597F90895990F0008550FAA0B4E
S1131160E0E8FEEF16161706E807F907C0F01216B6
S11311701306E407F50798F0621B730B840B950BB9
S113118039F40A2661F0232B242B252B21F408950E
S11311900A2609F4A140A6958FEF811D811D0895AB
S11311A097F99F6780E870E060E008959FEF80EC16
S11311B0089500240A9416161706180609060895B9
S11311C000240A9412161306140605060895092E1F
S11311D00394000C11F4882352F0BB0F40F4BF2B8E
S11311E011F460FF04C06F5F7F4F8F4F9F4F0895CE
S11311F057FD9058440F551F59F05F3F71F04795C4
S1131200880F97FB991F61F09F3F79F087950895A8
S1131210121613061406551FF2CF4695F1DF08C0C7
S1131220161617061806991FF1CF869571056105E4
S113123008940895E894BB2766277727CB0197F98C
S113124008950E94AC0808F48FEF08950E943909AC
S11312500C94E7080E94D90838F00E94E00820F0B6
S1131260952311F00C94D0080C94D60811240C94F6
S11312701B090E94F80870F3959FC1F3950F50E085
S1131280551F629FF001729FBB27F00DB11D639F34
S1131290AA27F00DB11DAA1F649F6627B00DA11DDA
S11312A0661F829F2227B00DA11D621F739FB00D80
S11312B0A11D621F839FA00D611D221F749F3327F0
S11312C0A00D611D231F849F600D211D822F762F89
S11312D06A2F11249F5750409AF0F1F088234AF066
S11312E0EE0FFF1FBB1F661F771F881F91505040D2
S11312F0A9F79E3F510580F00C94D0080C941B096B
S11313005F3FE4F3983ED4F3869577956795B79558
S1131310F795E7959F5FC1F7FE2B880F911D969572
S1131320879597F9089597FB072E16F4009407D034
S113133077FD09D00E94C90907FC05D03EF49095B9
S113134081959F4F0895709561957F4F0895A1E20F
S11313501A2EAA1BBB1BFD010DC0AA1FBB1FEE1F2B
S1131360FF1FA217B307E407F50720F0A21BB30B76
S1131370E40BF50B661F771F881F991F1A9469F7F2
S113138060957095809590959B01AC01BD01CF014E
S11313900895AA1BBB1B51E107C0AA1FBB1FA617B8
S11313A0B70710F0A61BB70B881F991F5A95A9F70A
S11313B080959095BC01CD0108958F929F92AF9234
S11313C0BF92CF92DF92EF92FF92CF93DF93EC0123
S11313D0688179818A819B816115710581059105F7
S11313E021F464E279ED8BE597E02DE133EF41E000
S11313F050E00E949F0A49015A019B01AC01A7EAEF
S1131400B1E40E94BE0A6B017C01ACEEB4EFA5010D
S113141094010E94CC0ADC01CB018C0D9D1DAE1DF4
S1131420BF1DB7FF03C00197A109B0488883998302
S1131430AA83BB839F77DF91CF91FF90EF90DF90DA
S1131440CF90BF90AF909F908F9008950E94DD0938
S1131450089580E690E00E94DD090895A0E0B0E0E0
S11314608093600090936100A0936200B093630046
S1131470089591110C94560A803219F089508550C0
S1131480C8F70895FB01DC010D900020E9F71197DE
S113149001900D920020E1F70895FB01DC018D918C
S11314A0019080190110D9F3990B08959927882781
S11314B00895DC01CB01FC01E199FECF06C0FFBB1E
S11314C0EEBBE09A31960DB20D9241505040B8F700
S11314D00895E199FECF9FBB8EBBE09A99278DB307
S11314E00895DC01A40FB51F4150504048F0CB01D2
S11314F0840F951F2E910E94820A41505040D0F7CC
S11315000895262FE199FECF9FBB8EBBE09A0197E9
S11315100DB2021631F02DBB0FB6F894E29AE19A9F
S11315200FBE0895262FE199FECF9FBB8EBB2DBB26
S11315300FB6F894E29AE19A0FBE01960895052E2B
S113154097FB1EF400940E94B60A57FD07D00E9430
S1131550A70907FC03D04EF40C94B60A50954095A5
S1131560309521953F4F4F4F5F4F0895909580954B
S1131570709561957F4F8F4F9F4F08950E94D10AB8
S1131580A59F900DB49F900DA49F800D911D1124D3
S11315900895B7FF0C94BE0A0E94BE0A821B930BE7
S11315A00895A29FB001B39FC001A39F700D811D38
S11315B01124911DB29F700D811D1124911D089558
S10715C0F894FFCFC9
S11315C401000000F7011202013132333435363799
S11315D438392A302341542B43474E53494E460D40
S11315E40041542B43474E535057523D310D004153
S11315F4542B43474E535057523D300D0053656EA0
S113160464696E6720534D533A00220D002E204125
S113161475746F6D6174656420534D532042793A37
S1131624204C42552E004641494C45442021004F4C
S11316344B0047534D3A20003B0D0041542B434E7D
S11316444D493D322C322C322C302C300D00415477
S11316542B434D47533D22300041542B434D4746C1
S11316643D310D0041540D002020494E4954494157
S11316744C495A494E470020202020202020202075
S11316842020004C6F63276E2042276420756E4C23
S11316946F636B0046696E642767204C6F636174E3
S11316A4696F6E0020454E544552205041535357A0
S11316B44F5244002020202056657269666965648F
S11316C400204C6F636B6572204F70656E696E67A2
S11316D40020436F6C6C656374204974656D7300FA
S11316E4204C6F636B657220436C6F73696E670083
S11316F42020205468616E6B20596F750057726FF7
S11317046E672050617373776F726400205379732A
S113171474656D204C6F636B656421005669627255
S113172461276E204F6363757272656400393831C2
S1131734393639313334310053746F722767204C8E
S11317446F636174696F6E004C6F636174696F6E6B
S113175420466F756E6400596F7572204F54502083
S1131764666F7220756E6C6F636B696E6720697344
S11317743A004C6F636B657220747279696E6720EA
S1131784746F206F70656E2061742000204C415486
S11317943A002026204C4F4E3A200020687474707E
S11317A43A2F2F6D6170732E676F6F676C652E63AC
S10F17B46F6D2F6D6170733F713D00007C
S9030000FC
